:020000040000fa
:10000000f8ff0120ad340001034c0001ef4c00016a
:10001000af500001ab510001575200010000000039
:10002000000000000000000000000000414d000141
:10003000db4f000100000000c13d0001554b0001f5
:10004000934500019345000193450001934500014c
:10005000934500019345000193450001934500013c
:10006000934500019345000193450001934500012c
:10007000934500019345000193450001b140000103
:10008000934500019345000193450001934500010c
:1000900093450001934500019345000193450001fc
:1000a00093450001934500019345000193450001ec
:1000b00093450001934500019345000193450001dc
:1000c00093450001934500019345000193450001cc
:1000d00093450001934500019345000193450001bc
:020000040000fa
:020000040004f6
:045f8800ffff000017
:020000040000fa
:020000040004f6
:045f8c0000400e843f
:020000040000fa
:020000040004f6
:045f900038fc745f06
:020000040000fa
:020000040004f6
:045f94003844101469
:020000040000fa
:020000040004f6
:045f98000300007191
:020000040000fa
:020000040004f6
:045f9c000000000001
:020000040000fa
:020000040004f6
:045fbc0000000010d1
:020000040000fa
:020000040100f9
:10000000f8b500bff8bc08bc9e467047b945000172
:10001000f8b500bff8bc08bc9e4670479545000186
:020000040000fa
:020000040100f9
:080020008c1300000100000038
:020000040000fa
:020000040100f9
:100028002de9f04f2ded028bd2e9008997b0cde98b
:100038000c138b6808930b690f90d1e900b61493e1
:10004800cd68002200234046494604f089fb40b9a8
:100058001bf0040f32d11bf00803059330d0202386
:1000680003e089f0004399462d232b70089b03f188
:10007800ff3a012305934c4929f0004300208b42a5
:1000880008bf80451fd10d9b413b192b059b94bf91
:10009800464947492b44184605f0fef8284605f01e
:1000a800a9f8cdf800b00246089b0f98294603f03e
:1000b80045fb17b0bdec028bbde8f08f2b23d4e7ce
:1000c800ddf820a0d7e7994208bf404509d20d9b2b
:1000d800413b192b059b94bf364937492b44184699
:1000e800dae7002200234046494604f059fc9fed18
:1000f8002c7b8ded027b48b300240d9805f099f810
:10010800002ec3b20993c0f2d781672b5ad1002eb3
:1001180008bf0126231d02dbb442c0f2c681652751
:1001280061e09ded067b8ded027b01340022234bbf
:10013800dde9020102f068fa42464b46cde90601c4
:1001480004f0f2fa0028ecd000271fe00446ede79f
:1001580014f5967f11da87b90022194b40464946b3
:1001680002f052fa002280468946154bdde9020169
:1001780002f04afacde902010127dde90201002275
:100188000e4b01f0c2fccde90201013cdde902237e
:100198004046494604f0e4fa0028d9d1ade700bf4b
:1001a800000000000000f03f0000f07f1c5200013a
:1001b800205200012452000128520001000024406e
:1001c80000005043099f662f06f101060bd1002c51
:1001d80004da9fedbd7b8ded027b0024099b672b24
:1001e80018bf361966279ded027bcde906898ded8e
:1001f8000a7b00230e93dde90a23dde9060101f0fd
:1002080084fc41ec100b02f017fd51ec100bb0ee22
:10021800408af0ee608a04f004f9b0ee480af0ee85
:10022800680a069b1093079b159083f0004311936f
:100238009ded0a1b9ded102b04f0b4fc53ec102b24
:1002480083f000430793dde90a01a34b8ded060a0d
:10025800002201f05afc0e9b01339e42cde90a01af
:100268000e93c8d100229d4b02f0cef9cde90a01c8
:1002780002460b46dde9060104f072fa002840f058
:100288008180dde90a23dde9060104f089fb10b16c
:10029800159bda0776d5dde90a234046494601f081
:1002a80015fb0022cde906018b4bdde9020102f0c6
:1002b800abf9dde90623cde90a0104f0c3f900280a
:1002c80065d0662f04f1010465d10136a146a9eb7a
:1002d80006034ff00008059e1093cdf80880109b88
:1002e800994540f08180029b002b00f0c880a81936
:1002f8000022652f027029d1149b1499013b944266
:10030800ea54c1f1030ebcbf644201220a21002c49
:1003180040f0bc800eeb030cbcf1000f00f3b6807c
:10032800002a03f1ff3114bf2d222b226a540d9aa3
:10033800023b413a192a05eb030198bf45279e4223
:100348000f70aaf1020a01da04f0a6ff0bf003030a
:10035800022b7ff4a3aebaf1000f7ff79fae2846b9
:1003680004f048ff05eb0a03059a824240f399809e
:10037800059b2b4418465246302104f033ff0023d6
:1003880008938be69fed527b8ded0a7b83e79ded0d
:10039800027b8ded0a7b652f14bfa1464ff0000943
:1003a80095e7029a52b9b9f1000f07da0e992e2291
:1003b8006a54012201360af1ff3a029205eb08015c
:1003c800aa193144302001e002f8010b9142fbd117
:1003d80008eb06023033aaeb080808f1ff3a561c6e
:1003e800ab544ff0000828e00c9b0e961b69053ba8
:1003f800b3427ff678afdde90a23dde9060101f0b3
:1004080084fb41ec100b02f017fc51ec100bb0ee22
:10041800408af0ee608a04f004f80bf01002092814
:100428000346a8bf09230243bbd1099a672ab8d15a
:10043800b9f1000fc2da08f10108069b1293079b75
:10044800b0ee480af0ee680a83f0004313939ded7e
:100458000a1b9ded122b04f0a5fb53ec102b83f027
:1004680000430793dde90a0100221b4b8ded060ac4
:1004780001f04bfb09f1ff39cde90a012fe71bf029
:10048800100f1ebf2e23ab55013630e7b4fbf1fc2d
:10049800013b01fb1c443034ec540af1ff3a64463a
:1004a80035e72a5c1a5401385ee7002cbff69aae8d
:1004b800662788e606262de6099b672bfad01f4695
:1004c800062680e6aff30080000000000000f03f41
:1004d800000000000000000000002440000014405c
:020000040000fa
:020000040100f9
:1004e8002de9f04f95b0cde912030b68089392ed12
:1004f800007b4b680a938b6809930b690d93cc6852
:100508000022002351ec170b8ded047b04f028f931
:1005180040b9089b580734d4089b13f0080732d019
:10052800202306e0dde9042181f00043cde904231e
:100538002d232370099b01275a1edde90403dff8e8
:10054800f8b223f000414ff0000a594508bf504562
:100558001bd1139b413b192b04eb070094bfb049f7
:10056800b04904f099feaf4804f044fe089b00939c
:100578000246099b1298214603f0e0f815b0bde841
:10058800f08f2b23d5e7099ad7e7139b8b45a3f167
:10059800410308bf82450b9309d2192b04eb0700ce
:1005a80094bfa149a14904f077fea048dce73021b7
:1005b800e1550b997b1c1a2934bf58217821e15445
:1005c800931e079300220023dde90401023704f09b
:1005d800e7f9002800f07b819fed8f7b8ded027b92
:1005e80000250a9bdde90289002bdde904abb8bfd1
:1005f80018230e93002642464b465046594601f0b2
:1006080084fa41ec100b02f017fb42464b4651ecc2
:10061800100b8ded100b01f0f7ff02460b4650460c
:10062800594604f051fe824b82468b464046494665
:10063800002201f0e9ff731c0c930a9b002b8046f3
:10064800894606da002200235046594604f0a8f9e4
:1006580028b90e9bb34200f3408101330c9300226a
:10066800744b4046494601f0cfff80468946024612
:100678000b465046594604f073f8002840f02f8185
:1006880042464b465046594604f08af930b1dde9f6
:10069800100103f0c6fec10740f1218142464b46d6
:1006a800dde9040101f012f9cde90401dde90421d5
:1006b80021f00043604900208b4208bf82423ff48a
:1006c80048af4ff000083e46c246c1460d9b053b69
:1006d800b342b34633d9dde90223dde9040101f071
:1006e80014fa41ec100b02f0a7fa51ec100b8ded47
:1006f8000e0b03f096fe002840f0f680b9f1000fcb
:1007080000f0f28008f10108dde90223dde90e01bd
:1007180001f07aff02460b46dde9040104f0d4fd3e
:10072800434bcde904010022dde9020101f06cff31
:100738000c9b09f101094b45cde90201c6d1baf17b
:10074800000f1dd1b8f1000f00f014810a9b002b97
:1007580040f31081089bda0700f10c81a3192e22bf
:100768001a7008eb06022244302103f8011f9a424e
:10077800fbd1079b46446fea0808434401360793b8
:100788000d9b0d990022a019013b95420270b8bf3c
:100798006d42e254c1f1020eb8bf01224ff00a08bf
:1007a800002d40f0d7800eeb030cbcf1010f00f0d8
:1007b800d180002a03f1ff3114bf2d222b2262546d
:1007c8000b9a023b1a2a04eb030134bf5022702211
:1007d8009e420a7001da04f05ffd089b03f00303f0
:1007e800022b14d1079ba3f10208b8f1000f0edd0c
:1007f800204604f0fffc04eb0803b84280f2b68000
:1008080042463021e01904f0edfc0023099320460c
:10081800aae600bfaff30080000000000000f03f30
:100828000c5200011052000114520001185200012c
:100838000000b03f000020400000f07fcde90289b1
:100848000135dde902231046194601f03ff88046dc
:10085800894602460b46dde9040103f081ff0028c2
:10086800ecd0dff82cb1dff82c914ff0000a4ff0f4
:100878000008dde90223dde9040103f071ff002827
:100888003ff4afae52465b46dde9020101f0bcfe23
:100898000022002304f084f878b142464b46dde993
:1008a800020101f0b1fe4246cde902014b46dde905
:1008b800040101f0a9fecde90401dde90201524677
:1008c8005b4601f0a1fe013dcde90201d1e79fedb4
:1008d8002e7b05468ded027bb3e70c9e8be64ff031
:1008e80000084ff00009d9e6baf1000f0bd1b9f1b1
:1008f800000f08d02e2304f80b30079b013b01366c
:1009080007934ff0010a04eb0803a219334430217e
:1009180001e002f8011b9a42fbd1079b06eb080b8a
:10092800a3eb08080b9b0928d4bf30305730192b8c
:1009380006d840f02003613b192b01d804f080fc55
:1009480008f1ff330bf1010604f80b0007934ff091
:100958000008d9e60799b5fbf8fc013b08fb1c55d4
:1009680030350139e5540791654619e7225c1a5478
:10097800013842e7089bdb067ff502af2e23a3551b
:100988000136fde6aff30080000000000000f03ff4
:080998000000e03f00005043a5
:020000040000fa
:020000040100f9
:1009a000a44b1b68002b40f013822de9f04fbbb025
:1009b000a14b1c6814b1dff8bcb297e09f4911f855
:1009c000012f9f4802f02efd38b19b4b1c68002c74
:1009d000f1d101203bb0bde8f08f9a4b1b78002b82
:1009e000f3d1984b01221a70efe700236375964efe
:1009f00004f1120803273a463168404604f03ef9f4
:100a0000002800f0e3810c365e45f4d100232382f8
:100a100068e00d2839d00a2837d0082800f06a810c
:100a20007f2800f09a811b2800f0b781e26904f169
:100a30002008a2eb08034f2b00f3b881a369d31a57
:100a400000f0b081d01a12f8011c02f8011982429c
:100a5000f9d1e269511ce16100215170a2690132b2
:100a60007a4904f1720004f093fa214601f8717f8b
:100a7000336828469847a3691f70a3690133a361af
:100a8000e26993422ed9e3612ce004f1200ae36984
:100a9000534555d033686e4928469847e36900218d
:100aa0001970c4f818a0c4f81ca020220deb020095
:100ab00004f09cfb676804975122514610a804f08b
:100ac000f5fb082208a910a802f0bafd039000283f
:100ad0003bd123681b685f493846984733685e49b5
:100ae00028469847a468002c3ff473af26686568d1
:100af000f368284698470028f4d033692846984779
:100b00000746b4f91030002b83d0e21890740133fb
:100b10001db22582032d3ff468af022de2dde668a9
:100b2000b3689d42ded1316804f1120004f0b4fada
:100b300018b9736831462046984700232382d1e7cd
:100b40003368464928469847cce7039b002b05dcd1
:100b500023681b68424904989847bfe7d4f8cc3013
:100b6000d4f8d070bb4235d07a68c4f8d020136076
:100b7000d4f8cc30d4f8d0205a605122514607f135
:100b8000080004f093fbd4f8cc3053b33b60d4f8a6
:100b9000d0307b601f60d4f8cc305f60c4f8cc707c
:100ba0000023c4f8d430ddf820802e4f3968404649
:100bb00004f072fae0b10c372b4b9f42f6d12b4b6d
:100bc00003f11802d83305930696cdf81ca0a2466f
:100bd000914656e00022c4f8cc20c4f8d0201f462d
:100be000cbe7c4f8cc70c4f8d0703f607f60d7e723
:100bf000039b082b06dd23685b6808221c490498c8
:100c000098476be77b6808aa03992046984765e7f1
:100c10005446069edaf800305b68082214490498ae
:100c200098475be75446069e7b6808aa039950469e
:100c3000984753e7a8c8002098c80020a0c8002003
:100c4000d850000115c90020744400012c1800017f
:100c5000d0160001681700010818000100170001f4
:100c6000d8170001f04c0001144d00014cc50020c4
:100c7000a0170001bc44000109f11809059b4b4570
:100c800032d04c4659f8146c002ef5d059f8087c37
:100c90009fb15122079925a804f008fb59f8043c9c
:100ca0000093512325aa51463046b847f8b9082287
:100cb00008a925a802f0c4fc0390039b082ba7dc1d
:100cc00054f8147c54f8184c002cd5d0ddf8208052
:100cd00000263968404604f0dff90028a2d001362a
:100ce0000c37a642f5d1c7e75446069e30e7544676
:100cf000069ef3e6a16904f1200399427ff6f2ae65
:100d0000e36999421ed24a1e5b1a06d0581e01445e
:100d1000507802f8010b8a42fad1a269013aa26125
:100d2000e269511ee161002102f8011c04f1710722
:100d3000a2692849384604f02bf933683946284619
:100d40009847cfe63368244928469847a369013b72
:100d5000a361e369013be361c4e6e369a2699342ed
:100d60007ff6c0ae511c5b1a05d0d018517802f83e
:100d7000011b9042fad1e269511ee161002102f8a3
:100d8000011c04f17107a2691449384604f000f906
:100d90003368394628469847a4e61b23a3740123e9
:100da00023829fe6002384f872305ee60c4f33689e
:100db00007f5e67128469847c4f81880c4f81c80e7
:100dc000336807f5d071284698478be6e660a6e6bb
:100dd000012070470c1800011818000120180001ac
:040de0006816000190
:020000040000fa
:020000040100f9
:100de4002de9f041aeb00646154605910027059958
:100df4000b78002b00f0fa8000244ff0ff33cde98c
:100e040009430eab0c9380230b940d930b5d0bb134
:100e1400252b26d134b12246304603f041ff059bf1
:100e240023440593059b1a78252a40f0d78003f1c3
:100e34000108cdf81480059803782b2b1ad025d8f7
:100e4400202b1bd0232b1dd02a2b27d003f07cfb77
:100e54000b90059b1a78303a092a2ed80133059352
:100e6400f7e70134d2e7099b43f00103013009930a
:100e74000590e0e7099b43f00403f7e7099b43f07f
:100e84000803f3e7099b43f01003efe72d2bead0a7
:100e9400302bd9d1099b43f00203e7e72b681a1dd5
:100ea4001b682a600130002b05900b9305da099a20
:100eb4005b4282f0010209920b93099bda0744bf5b
:100ec40023f002030993059b1a782e2a0dd10022e0
:100ed400581c0a9205905a782a2a25d10233059380
:100ee4002b681a1d1b682a600a9305a803f002fcec
:100ef400059b0390187804f09ef96928039979d02a
:100f040032dc632800f0cb8019dc252800f0d9807e
:100f1400612853d000234ff0ff32cdf81480099399
:100f24000b930a920093d4e003f00efb0a90059b06
:100f34001a78303a092ad8d801330593f7e7642898
:100f440058d06728e6dc2a4606a803f043fe0028aa
:100f540000f0a180059b5a1c05921b7806aa09a9da
:100f64003046fff75ff838e0702873d015dc6e2840
:100f740000f08c806f28cdd12b46002206a801f00a
:100f8400d9ff002800f08780059b06aa013309a930
:100f94003046059302f0fefd1fe075283ad078280c
:100fa40048d07328b6d1802975d1059b2a680133ae
:100fb4000593131d2b60126800237de02a4606a8c2
:100fc40003f008fe002866d0059b5a1c05921b7886
:100fd40006aa09a93046fff785fa04443c44a7420f
:100fe4007add3e4b4f221a604ff0ff3738462eb061
:100ff400bde8f0812b46012206a801f09bff0028e2
:1010040049d0059b06aa013309a93046059302f08d
:101014008ff8e2e72b46002206a801f08bff002898
:1010240039d0059b06aa013309a93046059303f07c
:1010340095f8d2e72b46002206a801f07bff50b3b7
:10104400059b5a1c05921b7806aa09a9304601f093
:1010540007fcc2e72b460022f02106a801f06aff34
:10106400c8b1059b01330593dde9062313430bd176
:101074001b4804f0c1f8099b009319490b9b0246d5
:10108400304602f05dfba8e77823dde72b463a19ea
:1010940006a802f08ffc059b013305939ee7802987
:1010a400f9d1059b013305932b681a1d1b682a602f
:1010b4008df8183006aa012309a9304603f022f856
:1010c4008be78029e7d1059b01330593099b0093a6
:1010d4000b9b04490122d3e7274688e610c9002068
:0810e400c24e0001c84e0001dc
:020000040000fa
:020000040100f9
:1010ec0000c800201c000000000000000cc60020fe
:1010fc000001000000000000c0c7002040000000fc
:10110c000000000098c800200c0000000000000047
:10111c0015c90020010000000000000040bf0020a5
:10112c000004000000000000a4c80020080000001b
:10113c00000000004cc50020c000000000000000b2
:10114c0080c800200c0000000000000000a000205f
:10115c00401f000000000000acc80020040000008c
:10116c000000000016c90020010000000000000073
:10117c008cc800200c00000000000000b0c800204b
:10118c00100000000000000018c90020040000003e
:10119c0001000000aaaaaaaac0c8002004000000ee
:1011ac00000000000000002000a000000000000073
:1011bc00c4c8002010000000000000000cc7002074
:1011cc006400000000000000d4c8002014000000df
:1011dc00000000001cc800202800000000000000d7
:1011ec00e8c80020100000000000000044c80020e7
:1011fc001400000000000000f8c8002004000000eb
:10120c000000000058c8002028000000000000006a
:10121c00fcc8002008000000000000001cc90020d1
:10122c0004000000010000000400000014c90020ac
:10123c00010000000000000004c9002004000000b0
:10124c000000000070c700205000000000000000eb
:10125c0040c300200c0200000000000008c9002060
:10126c000c00000000000000000000000000000066
:10127c006666666666666666666666666666666602
:020000040000fa
:020000040100f9
:1013ac002de9f04f099f154604468e461e46002b2c
:1013bc0040f0cc808a42b2fa82fc4cd9bcf1000fce
:1013cc000bd0ccf1200801fa0cfe20fa08f802fa36
:1013dc000cf548ea0e0e00fa0cf44fea15491ffa08
:1013ec0085f8befbf9fa210c09fb1ae30afb08fb92
:1013fc0041ea03439b452ad9eb180af1ff3004d28a
:10140c009b4502d9aaf102002b44a3eb0b03a4b217
:10141c00b3fbf9f209fb123302fb08f844ea03446c
:10142c00a04516d92c1902f1ff3303d2a04501d9de
:10143c00931e2c44a4eb080443ea004027b124fa81
:10144c000cf400233c607b603146bde8f08f5046c5
:10145c00dbe71346eee702b9ffdebcf1000f2ed13d
:10146c008b1a01264fea154eaab2b3fbfef8210cdb
:10147c000efb183308fb02f941ea0343994561d985
:10148c00eb1808f1ff3004d2994502d9a8f10200fb
:10149c002b44a3eb0903a4b2b3fbfef10efb1133f7
:1014ac004a4344ea0344a2424ed92c1901f1ff33ba
:1014bc0003d2a24201d98b1e2c44a41abce7ccf156
:1014cc00200e02fa0cf521fa0ef901fa0cf320faaf
:1014dc000efe4eea03034fea154800fa0cf4b9fb72
:1014ec00f8f11ffa85fe08fb1192180c01fb0ef6a1
:1014fc0040ea0242964221d9aa1801f1ff3003d2e8
:10150c00964201d9881e2a44921b9bb2b2fbf8f971
:10151c0008fb192209fb0efe43ea02439e450fd934
:10152c00eb1809f1ff3604d29e4502d9a9f1020647
:10153c002b44a3eb0e0346ea004693e70846e3e789
:10154c004e46f6e74046a4e70b46b6e78b4206d973
:10155c00002f7ed00026c7e90001304674e7b3faad
:10156c0083fcbcf1000f0fd18b4201d3824209d80e
:10157c00841a61eb030e0120002f6dd0c7e9004ed9
:10158c00002661e76046f7e7ccf1200e03fa0cf376
:10159c0022fa0ef521fa0ef41d4301fa0cf320fa8f
:1015ac000ef10b434fea154a00fa0cf6b4fbfaf9ac
:1015bc001ffa85f80afb19401c0c09fb08f144ead8
:1015cc000044a14202fa0cf23fd92c1909f1ff3068
:1015dc0004d2a14202d9a9f102002c44641a9bb294
:1015ec00b4fbfaf90afb194409fb08f843ea044175
:1015fc0088452cd9691809f1ff3304d2884502d9e2
:10160c00a9f10203294443ea0040a1eb0801a0fb25
:10161c0002894945c2464c4602d306d1464504d2fe
:10162c00b8eb020a69eb05040138afb1b6eb0a035b
:10163c0061eb040606fa0efe23fa0cf34eea0303e2
:10164c0026fa0cf6c7e900369ae74846c6e74b4639
:0c165c00d9e73e463846f7e63e46f5e684
:020000040000fa
:020000040100f9
:101668000d0a2d2d2d2d2d2d2d20537570706f7277
:1016780074656420636f6d6d616e642067726f7549
:101688007073202d2d2d2d2d2d0000000d0a202ae0
:101698002a2a2000202a2a2a000000000d0a2d2dbf
:1016a8002d2d2d2d2d2d2d2d204275696c74206921
:1016b8006e20636f6d6d616e6473202d2d2d2d2d41
:1016c8002d2d2d2d2d0000000d0a00000d0a556e40
:1016d8006b6e6f776e20636f6d6d616e64206772dd
:1016e8006f75702e205472792068656c700d0a0031
:1016f80008200800080000000d0a3e001b5b256456
:10170800430000001b5b2564440000000d0a202aea
:101718002a2a205175697474696e67207468652077
:10172800436f6d6d616e642050726f636573736f84
:10173800722e20427965202a2a2a0d0a000000000c
:101748000d0a202a2a2a2053797374656d20526560
:10175800626f6f74202a2a2a0d0a000020092c00c3
:10176800202a2a2a20436f6d6d616e642050726fa3
:10177800636573736f723a20506c6561736520748a
:1017880079706520696e206120636f6d6d616e648c
:101798002a2a2a0d0a0000000a0d20546f6f206db6
:1017a800616e7920617267756d656e74732e204d58
:1017b8006178696d756d20617267732073757070db
:1017c8006f727465643a202564210d0a00000000d8
:1017d800202a2a2a20436f6d6d616e642050726f33
:1017e800636573736f723a20756e6b6e6f776e20d8
:1017f800636f6d6d616e642e202a2a2a0d0a00001f
:101808003e000000081b5b4b25731b5b25644400ee
:10181800081b5b4b000000001b5b4b25731b5b2503
:101828006444000025731b5b25644400202a2a2a8f
:1018380020436f6d6d616e642050726f63657373c2
:101848006f72206275666665722065786365656487
:1018580065642e2052657472792e202a2a2a0d0a70
:101868000000000072657365740000003a2052653c
:1018780073657420686f73740000000071000000c5
:101888003a207175697420636f6d6d616e642070a4
:10189800726f636573736f720000000068656c7027
:1018a800000000003a2068656c7000001b5b410076
:1018b8001b5b42001b5b43001b5b44001b5b317ed0
:0c18c800000000001b5b347e000000bf2d
:020000040000fa
:020000040100f9
:1018d40030b591ea030f00f18280841a71eb030c96
:1018e40005d2121953eb0c03001b71eb0c0140f2ef
:1018f400000ccff6e07c1cea430f52d0bceb410f46
:101904005fd90c0da4eb135e5ff0010c6cf31f5157
:101914006cf31f53def1200c2ad303fa0cf54019a3
:1019240041f1000122fa0ef5401923fa0ef569413e
:1019340012fa0cf2cd0208d349085fea30005feadc
:10194400320228bf42f001020134013c5fea500c2c
:1019540072f1004250f1000051eb04514ff40013b6
:1019640013eb410f38bf30bd6ff31301002030bdbe
:10197400bef1200ebef1200f1ed223fa0ef540193f
:1019840041f10001cef1200c124218bf012203faea
:101994000cf52a43cee711ea5c0f04bf00200021b6
:1019a40030bd1cea410f04bf01f00041002030bdee
:1019b40001f00041002030bd21f4801101eb0451fd
:1019c40030bd004218bf41f00101bceb410f08bf1c
:1019d40030bd4ff0fe4141f47801002030bd83f06a
:1019e4000043841a71eb030e07d28ef0004e001be5
:1019f40071eb0e01121953eb0e0340f2000ccff6fb
:101a0400e07c1cea430fc6d0bceb410f72d90c0d2d
:101a1400a4eb135ec90241ea5051c00241f00041f7
:101a2400db0243ea5253d20243f00043def1200cbe
:101a340041d312fa0cf522fa0ef203fa0cf542ea3b
:101a4400050218bf42f0010223fa0ef3801a9941ed
:101a5400e30ac4f30a0411f0404f03d418d0013c44
:101a640040004941013c23d44205c00a40ea4150a8
:101a7400c90a51eac3715fea500c72f1004250f195
:101a8400000051eb045130bd01002fd00020203c58
:101a94000029f9d0b1fa81fcdcf1200e11fa0cf125
:101aa40030fa0ef510fa0cf02943a4eb0c04d9e734
:101ab4000020d90730bdaef1200ebef1200f0dd2ab
:101ac400cef1200c03fa0cf533fa0ef32a4318bfb7
:101ad40043f00103c01a61f10001b9e721f00041ac
:101ae400c00a40ea4150c90a01eb045130bd00204c
:101af400002130bd004218bf41f00101bceb410f91
:0e1b04007ff467afbceb430f3ff463af30bd1f
:020000040000fa
:020000040100f9
:101b1200f0b581ea030e0ef0004e40f20007cff658
:101b2200e07717ea41051ebf95ea070f17ea43045b
:101b320094ea070f00f0c5806d0da5eb545707f529
:101b420080674ff0004646eac12444ea5054c0027e
:101b520046eac32343ea5253d202801a9c4104d27a
:101b62000018644180185c41013f5b084fea320271
:101b72000025002140f001004ff0070604e0801a22
:101b82009c4136d340416441801a9c4136d3404146
:101b92006441801a9c4136d340416441801a9c4181
:101ba20036d340416441801a9c4136d3404164415e
:101bb200013e17d0801a9c4136d340416441801abd
:101bc2009c4136d340416441801a9c4136d3404106
:101bd2006441090201eb156190ea052520f0ff003e
:101be2004540cce7801a9c4156d335e080185c41d1
:101bf200c8d20018644180185c41c8d20018644100
:101c020080185c41c8d20018644180185c41c8d277
:101c12000018644180185c41c8d200186441013e3a
:101c220017d080185c41c8d20018644180185c410a
:101c3200c8d20018644180185c41c8d200186441bf
:101c4200090201eb156190ea052520f0ff004540ed
:101c5200cce780185c411fd3420918bf44f001044d
:101c6200490101ebd56100f01f0000eb451021f4a2
:101c7200801141ea0e01013041f10001244208bf06
:101c820020f00100b7f5006f3eda013f49dd01ebbc
:101c92000751bde8f0407047490101ebd56100f002
:101ca2001f0000eb451021f4801141ea0e01b7f547
:101cb200006f29da013f34dd01eb0751bde8f04046
:101cc2007047004218bf41f00101124218bf43f0b1
:101cd2000103b7eb410f2cbfb7eb430f1ce0b7eb8f
:101ce200410f04bfb7eb430f16e017ea410f04bfe1
:101cf20017ea430f10e017ea410f12d017ea430f19
:101d020002d0b7eb430f0cd04ef0fe4141f470010c
:101d12000020bde8f04070474ff0fe4141f47801e9
:061d2200f6e77146f4e74c
:020000040000fa
:020000040100f9
:101d28002de9f84307460e4698469500284601f0e7
:101d3800fdfb002800f0c9808146542001f0f6fb25
:101d48000446002800f08c805422002103f04afa4f
:101d5800c4f830902a46a521484603f043fa043dca
:101d6800236b1d4425f007058eb1337884f8343091
:101d780053b1334604f134010f3613f8012f01f83b
:101d8800012f0ab1b342f8d1002384f84330089bed
:101d9800042b28bf04239946e3626364261d30465a
:101da80003f09afa04f1180003f096fa2461c9f1d5
:101db8000503a361646242463946284602f0b0fe34
:101dc8002060099b03b11c6003f02ef8434a136896
:101dd80001331360424b1b68002b47d0414b1b68f3
:101de8003bb93f4b1b68da6ae36a9a429cbf3c4b9b
:101df8001c603d4a136801331360e36a3b49086875
:101e080001229a4002430a60394a03eb830302eb3a
:101e180083035b68a3609968e1604e609e60e06a36
:101e28008300191889005518656151580131034418
:101e38009b00d15003f06af92a4b1b68002b48d04d
:101e4800274b1b68da6ae36a9a4244d2294b4ff05f
:101e580080521a60bff34f8fbff36f8f012036e0b7
:101e6800484603f03efa4ff0ff3030e01c4b1c6050
:101e78001368012bbdd11e4d284603f0f3f805f178
:101e8800140003f0eff805f1280003f0ebf805f172
:101e98003c0003f0e7f805f1500003f0e3f8164fb3
:101ea800384603f0dff8154d284603f0dbf81448f0
:101eb80003f0d8f8134803f0d5f8134803f0d2f824
:101ec800124b1f60124b1d6093e74ff0ff30bde8c7
:101ed800f8830120fbe70120f9e700bfd4c8002000
:101ee800c8c80020f8c80020e0c80020e4c80020c6
:101ef8000cc7002004ed00e01cc8002030c80020fa
:101f080044c800206cc8002058c80020ccc8002055
:041f1800d0c800200d
:020000040000fa
:020000040100f9
:101f1c002de9f84f584b1b68002b40f0a780574b0e
:101f2c001c6801341c60b4b1554b1b68a3421fd90b
:101f3c000020544b1b68db6a03eb83039b00524a63
:101f4c00d358022b28bf0120504b1b68002b18bf05
:101f5c000120bde8f88f4e4a11684e4b186810608e
:101f6c0019604d4a13680133136002f06dfedbe714
:101f7c00002047498346494d4ff0010e424adff895
:101f8c0004c137e03e4b4ff0ff321a60d1e73c4bb7
:101f9c001e60cee7de6ad5f800a00efa06f848ea15
:101fac000a08c5f8008006eb860602eb8606766802
:101fbc009e60d6f80880c3f80c80c8f80490c6f868
:101fcc000890d3f82c904fea890606eb090802eb2f
:101fdc00880ac3f814a052f8288008f101084e446e
:101fec0042f82680dcf80080de6ad8f82c309e425d
:101ffc0088bf01200b681b68002bc3d00b68db6803
:10200c00db685e68b442c2d3d3f81480de689f6884
:10201c00be609f68776003f10409d8f804604e45f0
:10202c0004bfde68c8f80460c3f814b0d8f80060c8
:10203c00013ec8f80060d3f82880b8f1000fa9d091
:10204c001e6adf69be60df69776003f1180ad8f891
:10205c000460564504bf1e6ac8f80460c3f828b073
:10206c00d8f80060013ec8f8006093e70c4a13688a
:10207c000133136000206ce7dcc80020fcc8002092
:10208c00ecc80020c8c800200cc7002000c90020e4
:10209c00ccc80020d0c80020f0c80020e4c8002024
:0420ac00f4c8002054
:020000040000fa
:020000040100f9
:1020b0002de9f04702f0bcfe504b1a68013a1a6055
:1020c0001b68002b40f093804d4b1b680bb900241c
:1020d0008ee000234b491c464b4801264b4adff853
:1020e0003ca1dff830c10d68002d5fd0cb68db6804
:1020f000d3f828e0dd691f6aaf601d6adf696f6091
:1021000003f11808def80450454504bf1d6acef8f7
:1021100004509c62def80050013dcef80050d3f828
:102120001480dd689f68bd609f686f6003f1040ed6
:10213000d8f80450754504bfdd68c8f804505c61e8
:10214000d8f80050013dc8f80050dd6ad0f8009082
:1021500006fa05f848ea0908c0f8008005eb85058d
:1021600002eb85056d689d60d5f80880c3f80c808a
:10217000c8f804e0c5f808e0d3f82c804fea8805d9
:1021800005eb080e02eb8e09c3f8149052f82ee00e
:102190000ef1010e454442f825e0daf80050ed6af0
:1021a000df6aaf429fd3ccf800609ce70bb102f02e
:1021b00051fd174b1c686cb1164e012501e0013c26
:1021c00005d0fff7abfe0028f9d03560f7e7104bdc
:1021d00000221a600f4b1c6854b10f4b4ff0805215
:1021e0001a60bff34f8fbff36f8f012400e000240c
:1021f00002f090ff2046bde8f08700bfdcc8002059
:10220000d4c8002044c80020e4c800200cc7002027
:10221000f4c8002000c9002004ed00e0c8c8002078
:020000040000fa
:020000040100f9
:102220002de9f04704464568012904d090464f4ef9
:1022300006f1c0075be000224c4e4d4f07f12c0920
:1022400006f1c00818e023681b68494628469847ed
:1022500023681b68b1682846984723681b68f168a3
:102260002846984723681b6807f134012846984799
:102270000122183646450ad07368002bf9d0002a8f
:10228000e1d123681b68394628469847dbe7236875
:102290001b68384928469847374b03f10c0603f171
:1022a0003008334f07f12c09343723681b6849463f
:1022b0002846984723681b6856f80c1c2846984700
:1022c00023681b6856f8041c2846984723681b6837
:1022d0003946284698470c36b045e6d123681b6836
:1022e00026492846984738e01836be4237d07368ea
:1022f000002bf9d0d8f80410b06802f0cdfe002809
:10230000f2d1776833681bb30c374ff00008184bd5
:1023100003f12c0a03f1340923681b68514628464f
:10232000984723681b6857f80c1c28469847236871
:102330001b6857f8041c2846984723681b684946c1
:102340002846984708f101080c3733684345e3d81d
:1023500023681b68094928469847bde8f087236829
:102360001b68074928469847f7e700bf4cc500207f
:1023700068160001a4160001f04c0001d0160001ff
:04238000d41600016e
:020000040000fa
:020000040100f9
:102384002de9f04184b0044601914ff0000846461f
:1023940045464f4f43e0013ba36323684bb1236998
:1023a4005bb902f0b5fe4ff00108404604b0bde849
:1023b400f08102f0cffda060f1e704f1100000f01d
:1023c400d1fb0028edd0424b4ff080521a60bff38e
:1023d4004f8fbff36f8fe4e702f09afe4ff00008cf
:1023e400e3e702a802f034fe23e002f01ffda06838
:1023f40000f08afc804602f08bfe40e0204601f0ab
:10240400dff9fff753fe09e0204601f0d9f9fff7a1
:102414004dfe204602f033fe002844d1012602f08e
:1024240005fda36b002bb6d1019b002bd4d0002e4d
:10243400d7d002f06dfe02f0cffe02f0f7fc94f864
:1024440044305bb2b3f1ff3f08bf84f8445094f8c2
:1024540045305bb2b3f1ff3f08bf84f8455002f04a
:1024640057fe01a902a801f0dbfc0028ccd12046cc
:1024740002f005fe0028c1d02368002bb5d00199d5
:1024840004f1240002f058fd204601f099f9fff709
:102494000dfe0028c2d14ff080533b60bff34f8f35
:1024a400bff36f8fbae7b8f1000f3ff47eaf02f0cd
:1024b400bdfc616a19b1236b1968c1f10501a068fb
:1024c40000f08afe02f024fe4ff000086de700bf22
:0424d40004ed00e033
:020000040000fa
:020000040100f9
:1024d8004ff08842d2f8003113f4007ffad000237d
:1024e800434901334a6a12f0010f11d1b3f5fa5f7b
:1024f800f7d13f4b5b6a13f0010f0cd13c4a53688c
:1025080043f480735360536a13f0010ffbd002e069
:10251800b3f5fa5fedd2374ab2f8ba3403f0fd03e7
:10252800a2f8ba340022324901324b6a03f003039d
:10253800032b13d0b2f5fa5ff6d12d4b5b6a03f08b
:102548000303032b0dd02a4a536843f400735360e6
:10255800536a03f00303032bfad102e0b2f5fa5fe2
:10256800ebd24ff088430022c3f8b020224ac3f8c8
:10257800b02002f12b42a2f54b12a2f6ab42c3f8ef
:10258800b02003f520631d4a1a624ff480721a6066
:1025980001229a601a46136813f0010ffbd1184bf9
:1025a80048f20902c3f8502140f201221a674ff499
:1025b80000429a674ff088434ff410221a660022af
:1025c8001a67c3f880200f4ac3f8c02047f6f7728d
:1025d800c3f8e0204ff03332c3f8b020044b5a68f8
:1025e80042f010025a604ff080721a60704700bfc4
:1025f8000040014100200141556699aa080100c028
:08260800000a0044cf0101208b
:020000040000fa
:020000040100f9
:10261000f0b540f2ff7681ea030c16ea115e1ebfa8
:10262000b64516ea1355b54252d021ea465141f457
:102630008011a1fb024723ea465343f48013ae44c2
:10264000a0fb03650cf0004c36197d41a1fb03474c
:1026500047f10003a0fb0217f619654153f100038f
:10266000094218bf46f0010640f2fe74b3f5007f40
:1026700013d2aef5806ea64523d24cea033128036f
:1026800041ea155140ea16503203450872f1004202
:1026900050f1000051eb0e51f0bdaef2ff3ea645e9
:1026a0000fd24ceac321e80241ea555140ea5650a4
:1026b000f202450872f1004250f1000051eb0e5158
:1026c000f0bd1eea0e0f2dd50cf000410020f0bd2c
:1026d00016ea115f04bf01f000410020004218bf5c
:1026e00041f0010116ea135f04bf03f0004300222a
:1026f000124218bf43f0010306ea1354b44218bf54
:10270000b64503d00cf000410020f0bd21f000419f
:1027100023f00043b1eb065f0cd8b3eb065f09d89a
:1027200041b13bb10cf0004141f0fe4141f4700178
:102730000020f0bd40f20001c7f6f8710020f0bda6
:020000040000fa
:020000040100f9
:102740002de9f04784b00446884601921d464ff0bb
:1027500000094e46424f33e02a464146204601f0ea
:10276000a5f9636a73b938b13d4b4ff080521a60d6
:10277000bff34f8fbff36f8f02f0ccfc012004b08a
:10278000bde8f08704f1240000f0eef90028f3d052
:10279000334b4ff080521a60bff34f8fbff36f8ff0
:1027a000eae702f0b7fc0020e9e702a802f052fcd9
:1027b00014e0204601f006f8fff77afc4ff001091b
:1027c00002f036fba26be36b9a42c5d3022dc3d055
:1027d000019b002be5d0b9f1000fe6d002f09afc86
:1027e00002f0fcfc02f024fb94f844305bb2b3f13d
:1027f000ff3f08bf84f8446094f845305bb2b3f102
:10280000ff3f08bf84f8456002f084fc01a902a8dc
:1028100001f008fbe8b902f00bfbd4f838a0d4f8bb
:102820003c9002f077fcca45c3d1019904f1100035
:1028300002f084fb204600f0c5fffff739fc0028ba
:10284000bcd14ff080533b60bff34f8fbff36f8f0e
:10285000b4e7204600f0b6fffff72afc00208ee721
:0428600004ed00e0a3
:020000040000fa
:020000040100f9
:102864002de9f04f0e4649683568d6f80890f768a8
:102874008bb0cde903230029acbf25f0020501216b
:1028840015f010030593039b8346d3e900232fd04f
:1028940052ea03002cd0a9f10208346915f00800ab
:1028a40004f1ff3408904ff00000385518bf08f1c8
:1028b400ff388a46012c1ddc059b002b54d1089b54
:1028c40013b1013c20233b5532690095013a4b4634
:1028d400121b3919584600f033ffdbf80430db05ce
:1028e40003d573689842b8bf18460bb0bde8f08fa3
:1028f400c846d2e752ea030009d1baf1000f06dc58
:10290400a8eb010050440028d6dda807d4d502f076
:102914000f000928d4bf00f1300e00f1570e0498bf
:10292400a0f1410cbcf1190f04f1ff3410d84ef0a2
:10293400200cacf1610cbcf1190f09d87046099157
:10294400cde9062302f07efcdde9062309998646db
:10295400100940ea03704fea131c07f804e00af177
:10296400ff3a02466346a5e7039bd3e9000150ea18
:102974000103a4d03a19049b02f8013c023c302321
:042984003b559ce73c
:020000040000fa
:020000040100f9
:102988002de9f84300286ad050f8043ca0f1080467
:1029980023f00107e6193268934200d0ffde72681f
:1029a80023681340da070fd4204602f073f8002892
:1029b80057d1304602f0e0f80028f0d0736823f0d1
:1029c80001031f441e44eae747f0010363603846e9
:1029d800336001f071fe054602f036fa236872682a
:1029e8001340db07e0d5dff88ce0dee90089c5f1ac
:1029f800200ca5f1200228fa05f009fa0cfc29faa6
:102a080002f240ea0c001043012100ea010200230f
:102a18001343c5f120007346a5f1200212d121fa13
:102a280000f001fa02f2a94042ea00021ebfdef8f5
:102a380000000143cef8001022b1def804100a436a
:102a4800cef80420681c03ebc003a3f108026760fa
:102a58003760a2605a68e2605c60e3689c60bde829
:102a6800f883236823f00103e41a636823f0010361
:082a78001f449ee740c300204b
:020000040000fa
:020000040100f9
:102a80002de9f047002966d00e460024334d344b23
:102a900000f1010c334fa64606e007f801909a605a
:102aa000621c013496424cd96a6802f00702012a7e
:102ab0001cd09968d3f80c804a1cd3f810904a4572
:102ac00028bf002290453dd010f80490d5f804802e
:102ad00008f00708b8f1010fdfd14fea410807f805
:102ae000119008f1010107f801e0d8e7d3f8088058
:102af000d96808f10102d3f810904a4528bf002296
:102b000091421fd01cf8149010f8141041ea0921ca
:102b1000d5f8049009f00709b9f1010f05d0c9b241
:102b200007f808109a60621cbbe74fea48095ffa91
:102b300081fa07f818a009f10108090a07f8081036
:102b4000f0e7144602f04afa10b1044b01229a75dc
:102b50002046bde8f0870c46f4e700bf00100042b5
:082b6000c0c700208cc6002054
:020000040000fa
:020000040100f9
:102b680030b4c368db689a6ad869196a8160d86921
:102b7800486003f118005168814204bf196a516026
:102b880000219962116801391160254a1268002aea
:102b980039d15a699868d968816098684860181d61
:102ba8005168814204bfd968516000215961116898
:102bb80001391160da6a1b4c2568012191402943cb
:102bc8002160194902eb820201eb820252689a6085
:102bd8009468dc6060609060dc6aa2001019800074
:102be8000d185d61085801302244920088500f4a40
:102bf8001168da6acb6a9a4283bf01200c4b1860cd
:102c0800002030bc70470b4a5168d9618c681c623f
:102c1800606088609a62116801311160e7e700bf5f
:102c2800dcc80020e4c800200cc70020c8c8002069
:082c380000c9002044c800207f
:020000040000fa
:020000040100f9
:102c400053ec102bc3f30a512de9f04140f2fd7013
:102c50004e1e86421d4645d8a1f2ff30002835dbc6
:102c6000332831dc284bc0f120084ff0ff3c03fa39
:102c700008f2a1f21f412cfa00fc10ee104a4ceab7
:102c8000020c23fa01f24cea020c23fa00fe04ead9
:102c90000c0605ea0e0724ea0c0256ea070425eaa8
:102ca0000e030fd0002a73f100040bda4ff48015e5
:102cb00005fa08f425fa01f10c43121925fa00f07f
:102cc00040eb030343ec102bbde8f081002a73f1c5
:102cd000000303db9fed080bbde8f0819fed080bbf
:102ce000bde8f0810029efd10a4603f0004343ec30
:102cf000102be9e7aff300800000000000000000a7
:0c2d0000000000000000f0bfffff0f000b
:020000040000fa
:020000040100f9
:102d0c00002856d070b50446c26a2b490968c96ab6
:102d1c008a4245d28169002905db27490968c96abd
:102d2c00c1f10501816102eb8202244901eb8202af
:102d3c006169914205d0204a1268d26ae262012090
:102d4c0036e0251d284602f019f838b91c490b68e5
:102d5c00e06a0122824023ea02030b60164b1b68d7
:102d6c00db6ae36216490e68012000fa03f2324373
:102d7c000a60124a03eb830302eb83035b68a360d4
:102d8c009968e1604d609d60e56aab005919890056
:102d9c0056186661515801442b449b00d15007e0f2
:102dac00054a1268406cd36a98422cbf002001205f
:102dbc0070bd0020704700bfc8c800200cc70020a1
:042dcc00e4c8002037
:020000040000fa
:020000040100f9
:102dd000f8b52a4e2a4c4ee0226a002a3ad0616a9f
:102de000236a38469847a36a0133226b934228bf6f
:102df00000232fe0a06a4200efb2224901f81070d0
:102e00000132c5f307258d5430e002f0f3f8236a50
:102e1000002b30d0616a94f83c3033b1a36b9842f8
:102e200029d3236a0020984725e0a36b984222d13a
:102e3000236a002098471ee0337e13f0040f1cd055
:102e4000b56aa36a0133226b934228bf0023e26a6a
:102e50009a42c1d0e26a9a42eed0726802f007024a
:102e6000012ac7d0a26aedb206498d54a36294f834
:102e70003430002bc9d10127dee7f8bd0010004235
:082e8000c0c700200cc60020b1
:020000040000fa
:020000040100f9
:102e880070b504460e46234b1d68234b1868043062
:102e980001f076ff48b9204b1a6820490b68d06ac0
:102ea8000122824023ea02030b60b4f1ff3f0dd0f8
:102eb8002c44194b1b685c60a5421dd9184b186837
:102ec800154b1968043101f01dfd70bd002eefd0bf
:102ed800144a5168104b1868816018688c68c4607f
:102ee8001868043060601868043088601b685a618c
:102ef800136801331360e8e70b4b1868064b196831
:102f0800043101f0fffc094b1b68a34284bf074b47
:102f18001c60dae7fcc80020c8c80020e4c800200c
:102f2800d0c8002058c80020ccc80020ecc8002019
:020000040000fa
:020000040100f9
:102f3800882910b536d012dc812943d003dc8029da
:102f480040d0002010bd82290ed08429f9d11968fb
:102f580002b30a1d1a60b1f90020d3171ee0a02998
:102f68002bd00bdc9029ecd11968073121f007012f
:102f780001f108021a60d1e900230fe0c02901d04d
:102f8800f029ded11a68111d196013680360002347
:102f9800436005e00a1d1a600a880023c0e900237f
:102fa8000120cfe7196822b10a1d1a6091f90020a3
:102fb800d3e70a1d1a600a78efe71a68111d19602d
:102fc8001268cae719681ab10a1d1a600a68c4e7c4
:0c2fd8000c1d1c600b68c0e90032e1e732
:020000040000fa
:020000040100f9
:102fe40070b582b0254d264c264e14e0f25c8df867
:102ff4000620013322699a4298bf0023e3606b687c
:1030040003f00703012b14bf9df80630bdf806300a
:10301400ab62237dbbb92b7e13f0010f2cd0a268c9
:10302400e3689a4225d06a6802f00702012addd1da
:103034005a0016f813108df806100132b25c8df8a0
:1030440007200133d6e702f03bf82368002be2d0d7
:103054006168237f33b1a3699842dcd323680320da
:103064009847d8e7a3699842d5d1236803209847a5
:10307400d1e7024b01221a7502b070bd0010004264
:08308400c0c700208cc600202b
:020000040000fa
:020000040100f9
:10308c00244b1b681bb1244b01221a60704710b5ee
:10309c00214b00221a60214b1b681b6b1a68b2f182
:1030ac00a53f03d15a68b2f1a53f23d01b4b18683a
:1030bc001968343102f046f8194b1b68b3fa83f3e4
:1030cc00dbb2c3f11f03174a9900c81802eb80004a
:1030dc00446864684460194402460832944212d031
:1030ec0003eb83030f4a02eb83035b68da680b4b39
:1030fc001a6010bd9a68b2f1a53fd7d1db68b3f165
:10310c00a53fd3d1d8e760680a46064901eb820295
:10311c005060e5e7dcc8002000c90020c8c80020ca
:08312c00e4c800200cc70020dc
:020000040000fa
:020000040100f9
:103134002de9f041d2e900230c4686b007465fea48
:10314400d37820684968a5680590e66841d0524262
:1031540063eb4303002908db20f002000590b8f17b
:10316400000f02d1059948072ad5691e05a80290c7
:103174000a20cde90010204600f05afcb8f1000ff7
:1031840002d1059b59071fd5b8f1000f00f1ff309c
:1031940014bf2d232b2333542269059b0093013a3a
:1031a4002b46121a3118384600f0cafa7b68db0540
:1031b40003d563689842b8bf184606b0bde8f081ed
:1031c4000807d2d42946d1e71a07e5d501382023c8
:0831d400e1e70029c0dac5e7bc
:020000040000fa
:020000040100f9
:1031dc00002846d038b50446426c914238bf11469f
:1031ec00c26a8a4202d0806c012800d038bde162ec
:1031fc00a0690028a4bfc1f10501a16102eb820204
:10320c00184901eb820261699142efd1251d2846d4
:10321c0001f0b4fd38b914490b68e06a0122824010
:10322c0023ea02030b60e36a0f49086801229a4003
:10323c0002430a600b4a03eb830302eb83035b68d4
:10324c00a3609968e1604d609d60e06a8300191885
:10325c008900551865615158013103449b00d150c8
:0c326c00c4e770470cc70020e4c8002035
:020000040000fa
:020000040100f9
:103278002de9f04f83b080468b4601f10803019396
:10328800184601f0b7ff88b381460746d8f80060b2
:10329800d8f8045008f1200ad8f81c40a4eb0a0416
:1032a800a04207da3368134928469847013ca742e9
:1032b800f8d14c4634b1104f336839462846984700
:1032c800013cf9d10199504601f0e6ff33680b49fa
:1032d8002846984733685146284698470aeb090319
:1032e800c8f81830c8f81c30c8f8d4b003b0bde826
:1032f800f08f00bff8160001fc160001001700014e
:020000040000fa
:020000040100f9
:1033080000283ed038b50446c36b002b3bd0006c78
:10331800a0fb03230bb1002036e00d4601f084fd2d
:103328002268216ce36b03fb01f3d018a060002036
:10333800a06362605b1a1344e360ff2384f844309f
:1033480084f84530a5b923691bb901f0dffe0120d7
:103358001ae004f11000fff703fc0028f5d00b4b2e
:103368004ff080521a60bff34f8fbff36f8fece7b7
:1033780004f1100001f076fe04f1240001f072fe61
:10338800e3e700207047002038bd00bf04ed00e0ef
:020000040000fa
:020000040100f9
:1033980000283bd070b50446826c013a8264c06a4a
:1033a800616c884234d00ab1002070bd251d2846c2
:1033b80001f0e6fc38b917490b68e06a012282403f
:1033c80023ea02030b60636ce362c3f10502a261a6
:1033d80010490e68012000fa03f232430a600e4acf
:1033e80003eb830302eb83035b68a3609968e160e6
:1033f8004d609d60e56aab005919890056186661f1
:10340800515801442b449b00d150cee7002070470f
:0c3418000020cae7e4c800200cc7002018
:020000040000fa
:020000040100f9
:1034240070b506460d464ff4127001f083fc044655
:10343400002830d04ff41272002101f0d5fe26602e
:10344400656004f12003a361e36104f1d80304f58a
:10345400127108e0c4f8cc30c4f8d0301b605b6053
:103464005c338b420ed0d4f8cc20002af2d01a6000
:10347400d4f8d0205a601360d4f8cc205360c4f838
:10348400cc30ede70023a360064b1b682bb1054b42
:103494005a6894605c60204670bd024b1c605c609e
:0834a400f9e700bf98c8002001
:020000040000fa
:020000040100f9
:1034ac0008b5194b9847194b9847eff3108172b632
:1034bc00174ad2f8883043f47003c2f88830bff34f
:1034cc004f8fbff36f8f01b962b6124a936823f026
:1034dc00010393601346da6812f0010ffbd10d4b18
:1034ec0024225a6001229a6000f04eff0a4b23f00e
:1034fc007f03074a9360094b9847094b9847094b40
:10350c00984701f08dfefee7db490001db49000125
:10351c0000ed00e00020004100000000453f0001ec
:08352c00db490001db4900014d
:020000040000fa
:020000040100f9
:1035340038b5044610f0070f05d020f00703083310
:10354400834225d91c4601f047fe184b1b686bb11a
:1035540024b3174b1b681c4449f6f77294420bd8ea
:10356400a3420cd3fef7a2fd1ae000240f4a114b2c
:1035740023f007031360ebe7fef798fd10e00b4a16
:1035840015681d440a4b1c60fef790fd5db907e009
:1035940001f022fe054b1b68002be6d0fef786fdea
:1035a40001f0ddfd0025284638bd00bfc0c800205d
:0835b400c4c80020070000203c
:020000040000fa
:020000040100f9
:1035bc002de9f0411c4ad36a956a89b30e46ab4299
:1035cc0008bf002227d00122dff864c0174ca0f1fd
:1035dc00020e0138144f0ce0e15c81540133396b5d
:1035ec00994298bf0023b24214d2511cab4212d064
:1035fc000a46dcf8041001f007010129ecd159004e
:10360c0014f813800ef812800131615c00f812106e
:10361c000133e4e71d46044bdd621046bde8f08142
:10362c001d460a46f7e700bfc0c700200cc60020a5
:04363c000010004238
:020000040000fa
:020000040100f9
:103640002de9f84f90b38a46174605460024a34655
:103650001b4ea04614e0b9f1000f2bd009f1010573
:103660002221284601f06afd10b3854225d080f85a
:1036700000b0bc4238bf4af824500134451c19d070
:103680002221284601f05afd814608b180f800b099
:103690003146284600f036ff03460028dbd0bc4206
:1036a00038bf4af8243001344546f1e7002401e0f0
:1036b0004ff0ff342046bde8f88f4ff0ff34f9e7b4
:0436c000641700018a
:020000040000fa
:020000040100f9
:1036c4000eb430b5adf5816d0df2144353f8042bef
:1036d40001934ff4806102a800f0d2fb421e40f235
:1036e400fe339a4221d8044602ab00221a54124bec
:1036f4001b680344b3f5806f24bf0f4b1a600e4b55
:103704001b680e4d1d4402a9284601f0c7fd294639
:10371400002001f0f5fb14f0030318bfc3f1040308
:10372400054a1c4413681c4414600df5816dbde802
:10373400304003b0704700bfa4c8002040bf002041
:020000040000fa
:020000040100f9
:103744002de9ff471d460c9b13f0010906468a46e6
:10375400144601d195420bd822465146304601f019
:103764009ffaa54204d82546284604b0bde8f08750
:103774002f1b102f3a464ff0200128bf1022684615
:10378400b84601f031fdb8f10f0f11d83b096ff0c5
:103794000f0202fb03726946304601f081fab9f167
:1037a400000fe1d122465146304601f079fadbe7b9
:1037b40010226946304601f073faa8f11008e2e7d6
:020000040000fa
:020000040100f9
:1037c40070b5054601f032fb95f8454064b2002c13
:1037d40011dd6b6a7bb105f1240606e001f046fdbc
:1037e400013c64b23cb16b6a2bb13046fff7baf9c5
:1037f4000028f5d0f2e7ff2385f8453001f088fc76
:1038040001f014fb95f8444064b2002c11dd2b69df
:103814007bb105f1100606e001f028fd013c64b21d
:103824003cb12b692bb13046fff79cf90028f5d049
:0e383400f2e7ff2385f8443001f06afc70bd16
:020000040000fa
:020000040100f9
:1038420030b50d4689b0044620220021684601f0b9
:10385200ccfc2878a8b16b7863b1013d012015f842
:10386200013f83b921460125084611f8013bc3b93e
:10387200001b06e023461a46013311788142fad032
:10388200101b09b030bd5a0908a901eb820203f0ee
:103892001f0352f8201c00fa03f30b4342f8203caa
:1038a200dde75a090df1200c0ceb820203f01f0335
:0e38b20052f8202c05fa03f31342d5d1d8e7c3
:020000040000fa
:020000040100f9
:1038c0004ff088430022c3f8b020184ac3f8b02054
:1038d00002f12b42a2f54b12a2f6ab42c3f8b02084
:1038e00003280cd8dfe800f0020c1014104b102253
:1038f0005a604ff088430022c3f8b02030bf7047b1
:103900000b4b10229a60f4e7094b0a4a9a60f0e7e1
:10391000074b10229a60084b1a6842f400421a6062
:103920001a6842f400421a60e3e700bf556699aa9c
:0c393000000a004410008000001001425a
:020000040000fa
:020000040100f9
:10393c001b4b1c4a1a604ff6a0029a814ff440327e
:10394c005a601a46d369002bfcd1154a136843f010
:10395c0002031360d369002bfcd1134b00221a62b3
:10396c009a62da6283f8342083f83c209a63da870f
:10397c001a609a60da601a751a779a61084b5b685c
:10398c0003f00703012b084b14bf802240221a635b
:10399c001a61034b80229a7504229a75704700bff6
:0c39ac000010004204012040c0c70020b1
:020000040000fa
:020000040100f9
:1039b800842910b523d00cdc812903d0822913d0a7
:1039c80080290bd119680c1d1c600b6803601a60f4
:1039d80013e0902921d003dc882917d0002010bdde
:1039e800a029efd0c029ece719680c1d1c600b68f2
:1039f8000360d1171046c3e900010120efe71968f9
:103a08000c1d1c600b6803601a80f6e719680c1d12
:103a18001c600b6803601a70efe719680c1d1c60c6
:0c3a280009680160d317c1e90023e6e73c
:020000040000fa
:020000040100f9
:103a34002de9f84f04460c9f6668d4f80cb024694d
:103a440010463a68013c002502f0020a0b9a0bf872
:103a54000450002e1946b8bf0126012390464feab0
:103a6400e279002c03dcd3b12046bde8f88f50ea9c
:103a7400010209d1721b002a06dc0a9a521b002a91
:103a8400f1ddbaf1000feed042464b4601f01cf8ce
:103a9400013c134630320bf804200135e1e73b6862
:083aa40023f010033b60dfe793
:020000040000fa
:020000040100f9
:103aac0070b504461646856b026c5ab903681bb197
:103abc0000200135a56370bd8068fff767fc00230b
:103acc00a360f6e76eb9406801f04efb6368226ca8
:103adc0013446360a268934219d323686360304631
:103aec00e7e7c06801f040fb226c5242e3681344e4
:103afc00e36021688b4202d2a3681a44e260022e72
:103b0c0001d00020d5e725b1013d0020d1e730469a
:063b1c00cfe70020cde719
:020000040000fa
:020000040100f9
:103b220030b50d46097889b0044609b16b782bb9d6
:103b3200204600f0d6f9001b09b030bd202200213a
:103b4200684601f052fb013d012015f8013fa3b97f
:103b520021460125084611f8013b002bebd05a09fa
:103b62000df1200c0ceb820203f01f0352f8202c03
:103b720005fa03f31342edd0dde75a0908a901eb78
:103b8200820203f01f0352f8201c00fa03f30b43d6
:063b920042f8203cd9e7d7
:020000040000fa
:020000040100f9
:103b9800f0b50c4649682368a768e56887b000292e
:103ba8000593a4bf23f00203059305ab02930823f2
:103bb800cde900730646d2e900232046fff736ff19
:103bc800059bd90642bf00f1ff3030232b54059bdb
:103bd8001a0742bf00f1ff3020232b542269059bae
:103be8000093013a3b46121a29183046fff7a6fd02
:103bf8007368db0503d563689842b8bf184607b0f9
:023c0800f0bd0d
:020000040000fa
:020000040100f9
:023c0a00704701
:020000040000fa
:020000040100f9
:103c0c0000282ed10eb410b583b0164b93f90030aa
:103c1c0043b1144b5b682bb14ff6ff71124801f0a6
:103c2c0021f920b903b0bde8104003b0704706abd2
:103c3c000193059a4ff4fa510c4800f01df9421efd
:103c4c0041f63e739a4208d8084900230b54054ba1
:103c5c005a68546902469868a047034801f0abf9ca
:103c6c00e0e7704780c80020acc8002000a000200e
:020000040000fa
:020000040100f9
:103c7c0080b5164c164f174edff860802368bbb129
:103c8c0001f0d0f8fb68dd68281d01f077f8336887
:103c9c00013b33602368013b236001f035fa286b4c
:103cac0001f01dfb284601f01afb2368002be7d11d
:103cbc00094b1b68012be1d94ff08053c8f8003039
:103ccc00bff34f8fbff36f8fd8e700bfd8c800206a
:103cdc006cc80020d4c800200cc7002004ed00e004
:020000040000fa
:020000040100f9
:103cec0000b583b0124b019300230093802211493d
:103cfc001148fef713f8012804d0104b1b6803b0d1
:103d0c005df804fb4ff0200383f31188bff36f8f32
:103d1c00bff34f8f0a4b4ff0ff321a60094b012251
:103d2c001a60094b00221a6000f0c2fbe5e700bfe5
:103d3c00e8c80020c85200017d3c00011cc90020cd
:0c3d4c00ecc80020f8c80020fcc80020d3
:020000040000fa
:020000040100f9
:103d580038b505460c46154b1b7843b1fdb90cb375
:103d6800134b93f900305bb14ff0ff3038bd114869
:103d780001f017f901280fd10c4b01221a70ede759
:103d8800a0680b4b986062685a60022119705368ea
:103d9800216898470020e9e74ff0ff30e6e74ff049
:103da800ff30e3e74ff0ff30e0e700bf16c900201f
:083db80080c80020acc8002007
:020000040000fa
:020000040100f9
:103dc000eff30980bff36f8f154b1a681ef0100fc9
:103dd00008bf20ed108a20e9f04f10602de909009e
:103de0004ff0200080f31188bff34f8fbff36f8f28
:103df000fff74cf94ff0000080f3118809bc1968f7
:103e00000868b0e8f04f1ef0100f08bfb0ec108a41
:103e100080f30988bff36f8f704700bfaff3008056
:043e2000c8c80020ee
:020000040000fa
:020000040100f9
:103e240070b505460c4601f001f8134b1a68236877
:103e3400b3f1ff3f1ad06968104800682e688642c3
:103e440005d0914203d80023236001240fe0501ac7
:103e5400834203d800232360012408e09b1a0b4407
:103e64002360284601f0f4f8002400e0002401f067
:103e74004ff9204670bd00bffcc80020f0c80020e8
:020000040000fa
:020000040100f9
:103e8400f0b59bb004460d46164600214c2207a807
:103e94001f4601f0a9f94ff0ff33029303f2031315
:103ea400039304b901accde9044555b16a1e002d54
:103eb400069208da094b4f221a604ff0ff301bb00c
:103ec400f0bd2a46f3e7002323703a46314602a8a0
:103ed400cde9074401f04cf8f1e700bf10c9002018
:020000040000fa
:020000040100f9
:103ee400c9b2f8b50446f1b103469a0718461ed183
:103ef4004ff001354d431e4656f8044b84ea05073e
:103f0400a4f10132a7f1013022ea040220ea0700f9
:103f1400024312f0803f11d0184613f8012b2ab146
:103f24008a42f9d102e001f067f92044f8bd13f8a0
:103f3400012b002afad08a42d7d1f7e73346dae7d1
:020000040000fa
:020000040100f9
:103f44000e4a38b5002313600d4a0e4c13600e4a16
:103f54000e4d13600e4a13600e4a13600e4a5362ec
:103f640013610123936001f0c5f901f0c3f9ac4278
:103f740000d338bd54f8043b9847f8e70cc9002037
:103f84007cc700200c00000178c70020100000014d
:0c3f940070c7002074c7002080c7002008
:020000040000fa
:020000040100f9
:103fa00070b5d0e90245a54217d10122a1f1200345
:103fb000c1f1200622fa06f602fa03f333438a40df
:103fc000db43d6431ab10c490a6832400a605a1cd6
:103fd0001fbf094a51680b4053604368ac6043f00f
:103fe000010223f00103e56042601844036843f0d6
:0c3ff0000103036070bd00bf40c300204f
:020000040000fa
:020000040100f9
:103ffc002021222324242525262627272828282863
:10400c00292929292a2a2a2a2b2b2b2b2c2c2c2cfc
:10401c002c2c2c2c2d2d2d2d2d2d2d2d2e2e2e2ec4
:10402c002e2e2e2e2f2f2f2f2f2f2f2f000117023a
:10403c001d1813031e1b190b1408040d1f161c123c
:0c404c001a0a070c1511090610050f0eca
:020000040000fa
:020000040100f9
:10405800134bda6822f4e0621204120c42f0bf62d9
:1040680042f40032da60bff35f8f62b6e02183f872
:1040780023100c4a82f80f134ff4004111605a6a5a
:1040880042f480225a625a6942f010025a615a6a0e
:1040980042f400325a625a6a42f480325a627047d5
:0840a80000ed00e000e100e082
:020000040000fa
:020000040100f9
:1040b00008b5144b9b7df3b1124a137edbb2927d9f
:1040c00012f0800f18d10f4a137edbb2927d12f0ee
:1040d000010f04d013f0010f01d0fef783ff094a4e
:1040e000137edbb2927d12f0040f04d013f0040fa4
:1040f00001d0fef76dfe08bd13f0800fe3d000f095
:08410000fdf8e0e700100042a9
:020000040000fa
:020000040100f9
:104108002de9ff41134dd1f80080af88adf80c7050
:1041180006462868029002aca8798df80e00002a9d
:1041280018bf1446d1e901571a461bb9204601f0b9
:1041380061f80246002d02dbaa4228bf2a46cdf8c4
:1041480000803b4621463046fff7f8fa04b0bde848
:08415800f08100bfd852000104
:020000040000fa
:020000040100f9
:10416000f0b50c4649682368a668e76887b000295f
:104170000593a4bf23f00203059305ab02930a2322
:10418000cde900630546d2e900232046fff752fc43
:104190002269059b0093013a3346121a39182846c2
:1041a000fff7d0fa6b68db0503d563689842b8bfa8
:0641b000184607b0f0bd47
:020000040000fa
:020000040100f9
:0241b600704750
:020000040000fa
:020000040100f9
:1041b80008b5fef78df90f4a136823f49f7323f0af
:1041c800010343f01103136000f05afa00f079fd7f
:1041d800fff7b0fbfff715fd074800f043fc074960
:1041e8000020fff7b5fd064b186001f043f8fff714
:1041f8002fff08bd00240144b0c800205852000118
:04420800b4c8002016
:020000040000fa
:020000040100f9
:10420c0038b503681b680e4940689847c0220021e6
:10421c000c4800f0e5ff0c4b186868b11c460025f3
:10422c006368834207bf6560256083682360fef77f
:10423c00a5fb20680028f3d1044b01221a6038bd7d
:10424c00141700014cc5002098c80020a8c80020f5
:020000040000fa
:020000040100f9
:10425c0008b583b2cbb9184603eb43020f4b03eb03
:10426c0082035a68a2b100eb40000c4b03eb8000b8
:10427c00536a8068984701280cd043b263b1022876
:10428c000cbf01204ff0ff3008bd4ff0ff30fbe7b3
:10429c000020f9e70220f7e70020f5e780c80020ae
:020000040000fa
:020000040100f9
:1042ac0030b583b00d4c0e4b0193012500950023c6
:1042bc004ff4807221460b48fdf730fd0a4b0193f9
:1042cc00009500234ff4806204f110010748fdf7bc
:1042dc0025fdfff705fd03b030bd00bf204f0001e9
:1042ec00bcc80020cd510001b8c80020c15200014b
:020000040000fa
:020000040100f9
:1042fc0008b5104b5b8b13f0070300d108bd0e4ab9
:10430c00d3870c4b80221a7607225a831b7e13f01c
:10431c00040f05d0074b9a6a1a7e12f0040ffad1db
:10432c00054b1b6a002be9d0034b596a1b6a022010
:0c433c009847e3e700100042c0c70020d3
:020000040000fa
:020000040100f9
:1043480008b5104b1b7813b1012b08d008bd0e49d6
:104358000020fff757fc0b4b01221a70f6e700f01c
:104368007dff41f288339842f0d94ff0200383f360
:104378001188bff36f8fbff34f8f0320fff79cfaad
:0c438800e4e700bf14c9002088520001c7
:020000040000fa
:020000040100f9
:1043940070b50e4b0e4a0021934208d30d480e4dc2
:1043a4004ff6ff76016829b943681bb970bd03f85d
:1043b400011bf1e783684268334000f10c0455f8af
:1043c40023302046984704eb8000ebe700000020f0
:0c43d40000000020ec1000012851000146
:020000040000fa
:020000040100f9
:1043e00070b5d8b10546a0fb0132d2b901fb00f08f
:1043f00010f1490f17d80c464830fff79bf80646d6
:1044000068b114b100f1480300e003463360f5637e
:10441000346401213046fef777ff00e00026304685
:0a44200070bd0026fbe70026f9e757
:020000040000fa
:020000040100f9
:10442a00c1f30a5340f21e42d21a0edd202a0ad8dc
:10443a00cb0243ea505040f00040d04090eae1708d
:10444a00b0ebe1707047002070474b00004218bf84
:10445a0043f0010313f5001f88bf21f0004111f05a
:0a446a00004058bf6ff0004070479b
:020000040000fa
:020000040100f9
:10447400b41800018f4e000103000000b8180001b9
:104484000d50000103000000bc180001d14d0001d3
:1044940003000000c0180001e94e00010300000001
:1044a400c41800013d4a000104000000cc180001ba
:0844b4000d4a000104000000a4
:020000040000fa
:020000040100f9
:1044bc0010b50e4b1a6842f460021a601a6842f08a
:1044cc0060421a6000f048fc0024094b1c6000f0ac
:1044dc0011fe084a136843f04043136000f0a0fb40
:1044ec00fef7cefd00f08efc204610bd20ed00e066
:0844fc0018c9002034ef00e0b4
:020000040000fa
:020000040100f9
:1045040070b50e4604460f4d08b92c6844b12046d8
:104514003146fff794f9044423781bb92b601c46f9
:10452400204670bd31462046fff7f9fa2044286042
:10453400037823b1431c2b6000230370f0e72b6046
:08454400eee700bf08c90020ea
:020000040000fa
:020000040100f9
:10454c0010b50278202a034600f10100f9d0a2f13f
:10455c0009010429f5d92b2a07d02d2a11d10121c3
:10456c000133013b00200a2403e00021f8e76043fb
:10457c00801a13f8012f303a092af8d901b94042b0
:06458c0010bd0021ede767
:020000040000fa
:020000040100f9
:02459200fee742
:020000040000fa
:020000040100f9
:1045940010b5054c227832b9044b13b10448aff37b
:1045a40000800123237010bd00c80020000000001b
:1045b4000000000008b5034b1bb103490348aff3e7
:1045c400008008bd0000000004c8002000000000b6
:020000040000fa
:020000040100f9
:1045d40070b590b915460c460b4800f085fd78b1ce
:1045e400094e56f8083b1b6829462046984704465e
:1045f400304600f0e4fc204670bd4ff0ff34fae78b
:0c4604004ff0ff34f7e700bf8cc8002027
:020000040000fa
:020000040100f9
:1046100070b590b915460c460b4800f067fd78b1af
:10462000094e56f8083bdb68294620469847044661
:10463000304600f0c6fc204670bd4ff0ff34fae76c
:0c4640004ff0ff34f7e700bf8cc80020eb
:020000040000fa
:020000040100f9
:10464c004ff4001c1ceb410f98bf1ceb430f11d80f
:10465c0051ea030c50ea4c0c5cea020c0cd004d26c
:10466c0082428b4180410130704790429941804198
:0c467c000130704700207047012070479b
:020000040000fa
:020000040100f9
:104688004ff088430022c3f8b0200949c3f8b0109e
:1046980001f12b41a1f54b11a1f6ab41c3f8b010c4
:1046a80004494ff4885008600860c3f8b020704788
:0846b800556699aa00100142a9
:020000040000fa
:020000040100f9
:1046c00000090138202813d9b0f5007f05d2094b25
:1046d00003ebd00010f8040c7047b0f5e05f06d88b
:1046e000044b03ebd01010f8040c103070473f203f
:0846f000704700bffc3f000110
:020000040000fa
:020000040100f9
:1046f80030b50c4a002312f8134024b902eb4303e7
:104708005b78184630bd01680d78a54209bf02ebf9
:10471800430301335b78013114bfdbb201600a2b1c
:08472800e9d9eee7ac4e0001f7
:020000040000fa
:020000040100f9
:104730004ff4001c1ceb410f98bf1ceb430f11d82a
:1047400051ea030c50ea4c0c5cea020c0ad004d289
:1047500082428b4180414042704790429941804162
:08476000404270470020704741
:020000040000fa
:020000040100f9
:104768004ff4001c1ceb410f98bf1ceb430f11d8f2
:1047780051ea030c50ea4c0c5cea020c0ad004d251
:104788009042994180414042704782428b4180412a
:08479800404270470020704709
:020000040000fa
:020000040100f9
:1047a00060b908b50a4b93f9003053b1084b5b6808
:1047b00053b19b6806488068984708bd4ff0ff30aa
:1047c00070474ff0ff30f8e74ff0ff30f5e700bfdc
:0447d00080c800207d
:020000040000fa
:020000040100f9
:1047d40060b908b50a4b93f9003053b1084b5b68d4
:1047e40053b1db68064a9068984708bd4ff0ff3024
:1047f40070474ff0ff30f8e74ff0ff30f5e700bfa8
:0448040080c8002048
:020000040000fa
:020000040100f9
:1048080060b908b50a4b93f9003053b1084b5b689f
:1048180053b15b6906488068984708bd4ff0ff3080
:1048280070474ff0ff30f8e74ff0ff30f5e700bf73
:0448380080c8002014
:020000040000fa
:020000040100f9
:10483c0038b570b90a4800f053fc68b1084c54f80c
:10484c00083b1b6998470546204600f0b4fb2846f8
:10485c0038bd4ff0ff35fae74ff0ff35f7e700bff3
:04486c008cc80020d4
:020000040000fa
:020000040100f9
:1048700038b570b90a4800f039fc68b1084c54f8f2
:10488000083b5b6998470546204600f09afb28469e
:1048900038bd4ff0ff35fae74ff0ff35f7e700bfbf
:0448a0008cc80020a0
:020000040000fa
:020000040100f9
:1048a40038b570b90a4800f01ffc68b1084c54f8d8
:1048b400083b9b6898470546204600f080fb284645
:1048c40038bd4ff0ff35fae74ff0ff35f7e700bf8b
:0448d4008cc800206c
:020000040000fa
:020000040100f9
:1048d80038b570b90a4800f005fc68b1084c54f8be
:1048e800083b5b6898470546204600f066fb28466b
:1048f80038bd4ff0ff35fae74ff0ff35f7e700bf57
:044908008cc8002037
:020000040000fa
:020000040100f9
:10490c0030b40d68b5f1ff3f02d000f1080202e0af
:10491c00026904e01a4653681c68ac42fad9536821
:10492c004b6099608a6051600861036801330360d1
:04493c0030bc7047d4
:020000040000fa
:020000040100f9
:1049400010b540b90a4b4ff080521a60bff34f8f39
:10495000bff36f8f10bd044600f040fc00212046dd
:10496000fef792fafdf7a4fb0028f3d1eae700bfb7
:0449700004ed00e072
:020000040000fa
:020000040100f9
:1049740010b5013922b9034610461a4400210be050
:10498400034611f8014f03f8014b013a002cf4d00f
:104994001846efe703f8011b9342fbd1002808bf38
:0449a400184610bde4
:020000040000fa
:020000040100f9
:1049a8004ff4001c1ceb410f98bf1ceb430f0cd8b5
:1049b80050ea410c08bf52ea430c08d0904208bfa5
:1049c80099420cbf01200020704700207047012049
:0249d800704726
:020000040000fa
:020000040100f9
:0249da00704724
:020000040000fa
:020000040100f9
:1049dc0000b583b08df80710084b5888fff738fcea
:1049ec00022802d003b05df804fb01220df107018f
:1049fc00024b5888fff702fff4e700bfa0c8002065
:020000040000fa
:020000040100f9
:104a0c00c2698369d21a10d070b584b004460668a6
:104a1c004568064901a800f0b5fa336801a9284693
:104a2c009847e369a36104b070bd70470417000197
:020000040000fa
:020000040100f9
:104a3c00f0b585b000f120058269521b0bd00446fd
:104a4c0007684668054901a800f09cfa3b6801a973
:104a5c0030469847a56105b0f0bd00bf0c170001aa
:020000040000fa
:020000040100f9
:104a6c00024660b1074900680860074800230360ec
:104a7c00436052884a80054a136001207047002029
:104a8c00704700bfa0c8002098c80020a8c800200c
:020000040000fa
:020000040100f9
:104a9c0070b505462c68e30701d500200fe02046d1
:104aac00fff708fe064600f0cdf92868a042f1d1c8
:104abc0020f00100281a3146fff76cfa012070bd76
:020000040000fa
:020000040100f9
:104acc0053b94ab9002908bf00281cbf4ff0ff3169
:104adc004ff0ff3000f008bcadf1080c6de904cece
:104aec00fcf75efcddf804e0dde9022304b070475e
:020000040000fa
:020000040100f9
:104afc0000030000054c0001d5450001d948000118
:104b0c00a5480001114600013d4800017148000113
:0c4b1c00b7410001bd510001e75200014b
:020000040000fa
:020000040100f9
:104b28004ff0807340f8043c21f0010140f8081c64
:104b3800054b40f80c3c40f8202c6ff0020340f87d
:0c4b4800243c4438704700bf114e0001af
:020000040000fa
:020000040100f9
:104b540008b54ff0200383f31188bff36f8fbff3c1
:104b64004f8ffdf7d9f918b1034b4ff080521a60fb
:0c4b7400002383f3118808bd04ed00e06d
:020000040000fa
:020000040100f9
:104b800070b505466c68e30701d500200de02046ae
:104b9000fff796fd064600f05bf96b68a342f1d182
:0c4ba00028463146fff7fcf9012070bdeb
:020000040000fa
:020000040100f9
:104bac0000b553ec112b83b051ec100b8ded002b99
:104bbc00fdf728fd9ded002b53ec122bfcf784fe2a
:0c4bcc0041ec100b03b05df804fb00bfcf
:020000040000fa
:020000040100f9
:104bd800802910db812901dd83290cd11368073373
:104be80023f0070303f108011160d3e90023c0e9aa
:0a4bf80000230120704700207047e1
:020000040000fa
:020000040100f9
:024c0200fee7cb
:020000040000fa
:020000040100f9
:104c040060b910b50c46064800f0cdf9012804d16e
:104c14002268044b1a6001221a7110bd704700bf4c
:084c240094c800208cc8002098
:020000040000fa
:020000040100f9
:104c2c0008480068006880f308884ff0000080f3a3
:104c3c00148862b661b6bff34f8fbff36f8f00df7e
:084c4c0000bf000008ed00e0cc
:020000040000fa
:020000040100f9
:104c5400074b1b681b6823b9064b4ff0ff321a60e1
:104c64007047034b1b68db681a68024b1a60704775
:084c7400ccc80020ecc80020b0
:020000040000fa
:020000040100f9
:104c7c0030b57ab101380a4410f8013f0d4633b112
:104c8c0011f8014b1cb1914201d0a342f4d02a7807
:084c9c00981a30bd1046fce738
:020000040000fa
:020000040100f9
:104ca40038b505699542044628bf15462a46406929
:104cb40000f05efa636922692b44551b002263618c
:064cc40025611a7038bde5
:020000040000fa
:020000040100f9
:104cca004ff0884308225a6003f50c5380221a6376
:104cda005a615a60a3f5985301229a670922c3f8c8
:044cea003c227047b1
:020000040000fa
:020000040100f9
:024cee00fee7df
:020000040000fa
:020000040100f9
:104cf0006c1800012550000174180001841800018f
:104d00000d42000188180001a418000121220001b1
:044d1000ac180001da
:020000040000fa
:020000040100f9
:104d1400bff34f8f0549ca6802f4e062044b1343a2
:104d2400cb60bff34f8f00bffde700bf00ed00e095
:044d34000400fa0578
:020000040000fa
:020000040100f9
:084d380008b5fef7fbfb08bd06
:020000040000fa
:020000040100f9
:104d4000074b19680868b0e8f04f80f30988bff393
:104d50006f8f4ff0000080f311887047aff3008031
:044d6000c8c800209f
:020000040000fa
:020000040100f9
:104d6400054b00221a6005490a60054a4ff6ff11f7
:104d7400116007221a60704710e000e018e000e0bc
:044d840014e000e057
:020000040000fa
:020000040100f9
:104d88000369416882688a60416851605a68824252
:104d980004bf82685a60002202611a68013a1a60e8
:044da80018687047d0
:020000040000fa
:020000040100f9
:104dac0010b5024600210120fff714fb044638b170
:104dbc00002181600160c1600b460a46fdf7bafc18
:044dcc00204610bdb0
:020000040000fa
:020000040100f9
:104dd0008269c3699a420ad210b5044603681b6807
:104de000096840689847a3690133a36110bd704703
:020000040000fa
:020000040100f9
:104df00000b583b001220df10701044b5888fff77d
:104e0000cffc9df8070003b05df804fba0c80020ac
:020000040000fa
:020000040100f9
:104e100082b0002301934ff0200383f31188bff386
:104e20006f8fbff34f8f019b002bfcd002b07047f8
:020000040000fa
:020000040100f9
:104e30004ff0200383f31188bff36f8fbff34f8fc1
:104e4000024a136801331360704700bf18c900207d
:020000040000fa
:020000040100f9
:104e5000064b013053f830203ab9c100a1f10802e5
:104e60001a44194443f830204a60704740c3002078
:020000040000fa
:020000040100f9
:104e700008b54ff6ff73994208bf4ff0ff31006845
:0e4e8000fdf780fa012814bf0020012008bdb4
:020000040000fa
:020000040100f9
:104e8e0008b5d0f8d4303bb11968d0f8cc308b428d
:0e4e9e0001d0fef7eaf908bdd0f8cc10f9e714
:020000040000fa
:020000040100f9
:104eac0068076c094c836a9074a07ac0008068888b
:0e4ebc0000846c820081286e696c290025003c
:020000040000fa
:020000040100f9
:104eca0010b50023934206d113f0030018bf012046
:0e4eda0000eb930010bdc45ccc540133f2e732
:020000040000fa
:020000040100f9
:104ee80008b5836900f12002934206d90268013ba4
:0c4ef8008361136809684068984708bd92
:020000040000fa
:020000040100f9
:104f040010b50c46084600f077f902462146024bdc
:0c4f14005888fff777fc10bda0c80020f3
:020000040000fa
:020000040100f9
:104f20005359535f434d445f5441534b530000006a
:0c4f30004150505f5461736b730000bf70
:020000040000fa
:020000040100f9
:104f3c0010b50c46044b19681831fff7e1fc012140
:0c4f4c002046fdf79bff10bdc8c80020e8
:020000040000fa
:020000040100f9
:104f5800054b1b6823b1044b1a68936c01339364a7
:0c4f6800014b1868704700bfc8c800204b
:020000040000fa
:020000040100f9
:104f740013b50446019201aafbf732ff636813f0ec
:0c4f8400100f18bf4ff0ff3002b010bd3e
:020000040000fa
:020000040100f9
:104f90000eb403b503aa52f8041b019200f07af98b
:0a4fa00002b05df804eb03b07047a7
:020000040000fa
:020000040100f9
:104faa0003680bb10020704710b504460120fff7d3
:084fba00f8fe2060012010bd8b
:020000040000fa
:020000040100f9
:104fc20008b500231a4619460068fdf7b8fb012808
:084fd20014bf0020012008bdfe
:020000040000fa
:020000040100f9
:024fda00fee7f0
:020000040000fa
:020000040100f9
:104fdc00044a9368d06883423ebf024a12699b1808
:084fec00181a7047c0c700202d
:020000040000fa
:020000040100f9
:104ff400044bd86a9b6a984282bf024a126b9b1880
:08500400181a7047c0c7002014
:020000040000fa
:020000040100f9
:10500c0008b5d0f8d43033b15968d0f8d0308b42d1
:08501c0001d0fef72bf908bddd
:020000040000fa
:020000040100f9
:1050240008b503681b68034940689847fff770fe9a
:0850340008bd00bf4817000190
:020000040000fa
:020000040100f9
:10503c00bd350001f54f0001b1500001812a00017e
:08504c00b9520001c55000013a
:020000040000fa
:020000040100f9
:10505400034b1b680360034b1b684360704700bf2e
:08506400f0c80020fcc8002088
:020000040000fa
:020000040100f9
:10506c0000f1080343604ff0ff328260c3600361bc
:06507c00002303607047f1
:020000040000fa
:020000040100f9
:1050820010b50446fff7d3fea46b00f042f8b4fa61
:0650920084f0400910bd8e
:020000040000fa
:020000040100f9
:1050980010b50023c25ccc5ca24202d10133002ac5
:0650a800f8d1101b10bd41
:020000040000fa
:020000040100f9
:0250ae00fee71b
:020000040000fa
:020000040100f9
:1050b00010b5034b1c6bfff79dff013c201a10bd80
:0450c000c0c7002045
:020000040000fa
:020000040100f9
:1050c40010b5034b1c69fff787ff013c201a10bd84
:0450d400c0c7002031
:020000040000fa
:020000040100f9
:1050d800054f0001c5360001dd490001ad51000151
:0450e800f14d000185
:020000040000fa
:020000040100f9
:1050ec0008b54ff6ff710830fff7bcfe003018bf53
:0450fc00012008bdca
:020000040000fa
:020000040100f9
:10510000dff80c00016841f4700101607047000095
:0451100088ed00e046
:020000040000fa
:020000040100f9
:10511400034a1368013b13600bb983f3118870478a
:0451240018c9002086
:020000040000fa
:020000040100f9
:1051280099510001cb4e0001f1520001f1520001ea
:04513800f15200012f
:020000040000fa
:020000040100f9
:10513c0010b50c46fef7d0fe0378e4b2a34218bfbc
:04514c00002010bd72
:020000040000fa
:020000040100f9
:105150004ff0200383f31188bff36f8fbff34f8f9e
:02516000fee768
:020000040000fa
:020000040100f9
:105162004ff0200383f31188bff36f8fbff34f8f8c
:02517200fee756
:020000040000fa
:020000040100f9
:1051740010b500239a4200d110bdcc5cc454013355
:02518400f8e74a
:020000040000fa
:020000040100f9
